:100000000C942A000C9434000C9434000C943400AA
:100010000C9434000C9434000C9434000C94340090
:100020000C9434000C9434000C9434000C94340080
:100030000C9434000C9434000C9434000C94340070
:100040000C9434000C9434000C9434000C94340060
:100050000C94340011241FBECFE5D8E0DEBFCDBF25
:100060000E9411020C9417020C9400008BB363E001
:1000700040E00E94DE0008958BB363E041E00E94FF
:10008000DE0008958BB363E041E00E9459000895BB
:10009000813049F0813028F0823039F0833041F4EA
:1000A00006C06ABB089567BB089564BB089561BB31
:1000B00008954423C9F1413009F06EC0813099F0B0
:1000C000813030F08230D1F0833009F065C021C03A
:1000D0002AB381E090E002C0880F991F6A95E2F789
:1000E000282B2ABB089527B381E090E002C0880F37
:1000F000991F6A95E2F7282B27BB089524B381E066
:1001000090E002C0880F991F6A95E2F7282B24BB64
:10011000089521B381E090E002C0880F991F6A958D
:10012000E2F7282B21BB0895813099F0813028F027
:100130008230D9F0833081F524C02AB381E090E089
:1001400002C0880F991F6A95E2F7809582238ABBC7
:10015000089527B381E090E002C0880F991F6A9547
:10016000E2F78095822387BB089524B381E090E075
:1001700002C0880F991F6A95E2F78095822384BB9D
:10018000089521B381E090E002C0880F991F6A951D
:10019000E2F78095822381BB0895813049F0813058
:1001A00028F0823039F0833041F406C06BBB0895EB
:1001B00067BB089564BB089561BB08954423C9F1EA
:1001C000413009F06EC0813099F0813030F08230DA
:1001D000D1F0833009F065C021C02BB381E090E0FD
:1001E00002C0880F991F6A95E2F7282B2BBB089550
:1001F00028B381E090E002C0880F991F6A95E2F76A
:10020000282B28BB089525B381E090E002C0880F19
:10021000991F6A95E2F7282B25BB089522B381E048
:1002200090E002C0880F991F6A95E2F7282B22BB45
:100230000895813099F0813028F08230D9F08330F0
:1002400081F524C02BB381E090E002C0880F991F94
:100250006A95E2F7809582238BBB089528B381E0ED
:1002600090E002C0880F991F6A95E2F7809582237B
:1002700088BB089525B381E090E002C0880F991FE4
:100280006A95E2F78095822385BB089522B381E0C9
:1002900090E002C0880F991F6A95E2F7809582234B
:1002A00082BB0895FB01813049F0813028F0823013
:1002B00039F0833051F407C089B303C086B301C05D
:1002C00083B38083089580B380830895FA018130D9
:1002D00049F0813028F0823039F08330C1F40EC00B
:1002E00089B303C086B301C083B390E002C0959583
:1002F00087956A95E2F781708083089580B390E0D6
:1003000002C0959587956A95E2F78170808308957C
:10031000813091F0813028F08230C9F0833061F56E
:1003200021C02BB381E090E002C0880F991F6A952D
:10033000E2F728272BBB089528B381E090E002C0A4
:10034000880F991F6A95E2F7282728BB089525B3DF
:1003500081E090E002C0880F991F6A95E2F7282794
:1003600025BB089522B381E090E002C0880F991F59
:100370006A95E2F7282722BB0895882369F40E9432
:100380003C0088E893E120E931E0F9013197F1F789
:100390000197D9F70E94360008951F93182F0E94E5
:1003A0004200612F6295607F80E00E94CD0019308D
:1003B00069F40E943C0088E893E120E931E0F9010A
:1003C0003197F1F70197D9F70E9436001F910895F0
:1003D00081E061E04FEF0E94DE0080E064E041E0F8
:1003E0000E94590080E065E041E00E94590080E0F1
:1003F00066E041E00E94590080E067E041E00E9431
:10040000590081E061E041E00E94590081E062E032
:1004100041E00E94590081E063E041E00E94590000
:1004200008950E94E80180E00E94CD01FCCFF8947D
:02043000FFCFFC
:00000001FF
